{
  "transactions": [
    {
      "hash": "0xebcf173a9bc3a1cd04105958b0155722953ae9b74d06eabf73afaf68c14b600b",
      "transactionType": "CALL",
      "contractName": null,
      "contractAddress": "0xd67388a2dbaf54250a80b277e362ccc4b6022bc3",
      "function": "setRegisteredSender(uint16,bytes32)",
      "arguments": [
        "10002",
        "0x0000000000000000000000002fa0db38bda13e54f1359966149a0f1a7e63fd2c"
      ],
      "transaction": {
        "from": "0xec59dc1e51d2d74e308b3119b467a8c0a7046b4f",
        "to": "0xd67388a2dbaf54250a80b277e362ccc4b6022bc3",
        "gas": "0xfb6b",
        "value": "0x0",
        "input": "0xdd12d68b00000000000000000000000000000000000000000000000000000000000027120000000000000000000000002fa0db38bda13e54f1359966149a0f1a7e63fd2c",
        "nonce": "0x5",
        "chainId": "0x14a34"
      },
      "additionalContracts": [],
      "isFixedGasLimit": false
    }
  ],
  "receipts": [
    {
      "status": "0x1",
      "cumulativeGasUsed": "0x19ad82",
      "logs": [],
      "logsBloom": "0x00000000000000000000000000000000000000000000000000000000000000000000000000000000000000000000000000000000000000000000000000000000000000000000000000000000000000000000000000000000000000000000000000000000000000000000000000000000000000000000000000000000000000000000000000000000000000000000000000000000000000000000000000000000000000000000000000000000000000000000000000000000000000000000000000000000000000000000000000000000000000000000000000000000000000000000000000000000000000000000000000000000000000000000000000000000",
      "type": "0x2",
      "transactionHash": "0xebcf173a9bc3a1cd04105958b0155722953ae9b74d06eabf73afaf68c14b600b",
      "transactionIndex": "0x4",
      "blockHash": "0x0acf767622f60f7e81771d45a663b926ac6ba8bb9702e428d57cc10721d10ece",
      "blockNumber": "0x21cda6c",
      "gasUsed": "0xb606",
      "effectiveGasPrice": "0x124f80",
      "blobGasUsed": "0x79e0",
      "from": "0xec59dc1e51d2d74e308b3119b467a8c0a7046b4f",
      "to": "0xd67388a2dbaf54250a80b277e362ccc4b6022bc3",
      "contractAddress": null,
      "daFootprintGasScalar": "0x138",
      "l1BaseFeeScalar": "0x44d",
      "l1BlobBaseFee": "0x88524ea",
      "l1BlobBaseFeeScalar": "0xa118b",
      "l1Fee": "0x2af5bec70",
      "l1GasPrice": "0x470c866a",
      "l1GasUsed": "0x640"
    }
  ],
  "libraries": [],
  "pending": [],
  "returns": {},
  "timestamp": 1766658998,
  "chain": 84532,
  "commit": "e0be7d3"
}