{
  "transactions": [
    {
      "hash": "0x7e8a142339d10c6d33db016b82541909c381a8ee44b6d55bec30dbd0d3695033",
      "transactionType": "CALL",
      "contractName": null,
      "contractAddress": "0x18eedeb2e9c2121b118dbc84f465740e69d8f0f3",
      "function": "setRegisteredSender(uint16,bytes32)",
      "arguments": [
        "10002",
        "0x00000000000000000000000018eedeb2e9c2121b118dbc84f465740e69d8f0f3"
      ],
      "transaction": {
        "from": "0xec59dc1e51d2d74e308b3119b467a8c0a7046b4f",
        "to": "0x18eedeb2e9c2121b118dbc84f465740e69d8f0f3",
        "gas": "0xfb6b",
        "value": "0x0",
        "input": "0xdd12d68b000000000000000000000000000000000000000000000000000000000000271200000000000000000000000018eedeb2e9c2121b118dbc84f465740e69d8f0f3",
        "nonce": "0x1",
        "chainId": "0x14a34"
      },
      "additionalContracts": [],
      "isFixedGasLimit": false
    }
  ],
  "receipts": [
    {
      "status": "0x1",
      "cumulativeGasUsed": "0x1a1c25",
      "logs": [],
      "logsBloom": "0x00000000000000000000000000000000000000000000000000000000000000000000000000000000000000000000000000000000000000000000000000000000000000000000000000000000000000000000000000000000000000000000000000000000000000000000000000000000000000000000000000000000000000000000000000000000000000000000000000000000000000000000000000000000000000000000000000000000000000000000000000000000000000000000000000000000000000000000000000000000000000000000000000000000000000000000000000000000000000000000000000000000000000000000000000000000",
      "type": "0x2",
      "transactionHash": "0x7e8a142339d10c6d33db016b82541909c381a8ee44b6d55bec30dbd0d3695033",
      "transactionIndex": "0x6",
      "blockHash": "0x8b2077410f375e09c4f44f6c1bf7cff6ef166824eff7fa2321c9566dc15fbb74",
      "blockNumber": "0x21ccde6",
      "gasUsed": "0xb606",
      "effectiveGasPrice": "0x124f80",
      "blobGasUsed": "0x79e0",
      "from": "0xec59dc1e51d2d74e308b3119b467a8c0a7046b4f",
      "to": "0x18eedeb2e9c2121b118dbc84f465740e69d8f0f3",
      "contractAddress": null,
      "daFootprintGasScalar": "0x138",
      "l1BaseFeeScalar": "0x44d",
      "l1BlobBaseFee": "0x3f39",
      "l1BlobBaseFeeScalar": "0xa118b",
      "l1Fee": "0x1501669",
      "l1GasPrice": "0xb588e6",
      "l1GasUsed": "0x640"
    }
  ],
  "libraries": [],
  "pending": [],
  "returns": {},
  "timestamp": 1766652588,
  "chain": 84532,
  "commit": "e0be7d3"
}